{
  "contractName": "SmartContract",
  "abi": [
    {
      "inputs": [],
      "stateMutability": "nonpayable",
      "type": "constructor"
    },
    {
      "anonymous": false,
      "inputs": [
        {
          "indexed": true,
          "internalType": "address",
          "name": "owner",
          "type": "address"
        },
        {
          "indexed": true,
          "internalType": "address",
          "name": "approved",
          "type": "address"
        },
        {
          "indexed": true,
          "internalType": "uint256",
          "name": "tokenId",
          "type": "uint256"
        }
      ],
      "name": "Approval",
      "type": "event"
    },
    {
      "anonymous": false,
      "inputs": [
        {
          "indexed": true,
          "internalType": "address",
          "name": "owner",
          "type": "address"
        },
        {
          "indexed": true,
          "internalType": "address",
          "name": "operator",
          "type": "address"
        },
        {
          "indexed": false,
          "internalType": "bool",
          "name": "approved",
          "type": "bool"
        }
      ],
      "name": "ApprovalForAll",
      "type": "event"
    },
    {
      "anonymous": false,
      "inputs": [
        {
          "indexed": true,
          "internalType": "address",
          "name": "previousOwner",
          "type": "address"
        },
        {
          "indexed": true,
          "internalType": "address",
          "name": "newOwner",
          "type": "address"
        }
      ],
      "name": "OwnershipTransferred",
      "type": "event"
    },
    {
      "anonymous": false,
      "inputs": [
        {
          "indexed": true,
          "internalType": "address",
          "name": "from",
          "type": "address"
        },
        {
          "indexed": true,
          "internalType": "address",
          "name": "to",
          "type": "address"
        },
        {
          "indexed": true,
          "internalType": "uint256",
          "name": "tokenId",
          "type": "uint256"
        }
      ],
      "name": "Transfer",
      "type": "event"
    },
    {
      "inputs": [],
      "name": "MAX_NFTS",
      "outputs": [
        {
          "internalType": "uint256",
          "name": "",
          "type": "uint256"
        }
      ],
      "stateMutability": "view",
      "type": "function",
      "constant": true
    },
    {
      "inputs": [
        {
          "internalType": "address",
          "name": "to",
          "type": "address"
        },
        {
          "internalType": "uint256",
          "name": "tokenId",
          "type": "uint256"
        }
      ],
      "name": "approve",
      "outputs": [],
      "stateMutability": "nonpayable",
      "type": "function"
    },
    {
      "inputs": [
        {
          "internalType": "address",
          "name": "owner",
          "type": "address"
        }
      ],
      "name": "balanceOf",
      "outputs": [
        {
          "internalType": "uint256",
          "name": "",
          "type": "uint256"
        }
      ],
      "stateMutability": "view",
      "type": "function",
      "constant": true
    },
    {
      "inputs": [
        {
          "internalType": "uint256",
          "name": "tokenId",
          "type": "uint256"
        }
      ],
      "name": "getApproved",
      "outputs": [
        {
          "internalType": "address",
          "name": "",
          "type": "address"
        }
      ],
      "stateMutability": "view",
      "type": "function",
      "constant": true
    },
    {
      "inputs": [
        {
          "internalType": "address",
          "name": "owner",
          "type": "address"
        },
        {
          "internalType": "address",
          "name": "operator",
          "type": "address"
        }
      ],
      "name": "isApprovedForAll",
      "outputs": [
        {
          "internalType": "bool",
          "name": "",
          "type": "bool"
        }
      ],
      "stateMutability": "view",
      "type": "function",
      "constant": true
    },
    {
      "inputs": [],
      "name": "name",
      "outputs": [
        {
          "internalType": "string",
          "name": "",
          "type": "string"
        }
      ],
      "stateMutability": "view",
      "type": "function",
      "constant": true
    },
    {
      "inputs": [],
      "name": "owner",
      "outputs": [
        {
          "internalType": "address",
          "name": "",
          "type": "address"
        }
      ],
      "stateMutability": "view",
      "type": "function",
      "constant": true
    },
    {
      "inputs": [
        {
          "internalType": "uint256",
          "name": "tokenId",
          "type": "uint256"
        }
      ],
      "name": "ownerOf",
      "outputs": [
        {
          "internalType": "address",
          "name": "",
          "type": "address"
        }
      ],
      "stateMutability": "view",
      "type": "function",
      "constant": true
    },
    {
      "inputs": [],
      "name": "paused",
      "outputs": [
        {
          "internalType": "bool",
          "name": "",
          "type": "bool"
        }
      ],
      "stateMutability": "view",
      "type": "function",
      "constant": true
    },
    {
      "inputs": [],
      "name": "renounceOwnership",
      "outputs": [],
      "stateMutability": "nonpayable",
      "type": "function"
    },
    {
      "inputs": [
        {
          "internalType": "address",
          "name": "from",
          "type": "address"
        },
        {
          "internalType": "address",
          "name": "to",
          "type": "address"
        },
        {
          "internalType": "uint256",
          "name": "tokenId",
          "type": "uint256"
        }
      ],
      "name": "safeTransferFrom",
      "outputs": [],
      "stateMutability": "nonpayable",
      "type": "function"
    },
    {
      "inputs": [
        {
          "internalType": "address",
          "name": "from",
          "type": "address"
        },
        {
          "internalType": "address",
          "name": "to",
          "type": "address"
        },
        {
          "internalType": "uint256",
          "name": "tokenId",
          "type": "uint256"
        },
        {
          "internalType": "bytes",
          "name": "_data",
          "type": "bytes"
        }
      ],
      "name": "safeTransferFrom",
      "outputs": [],
      "stateMutability": "nonpayable",
      "type": "function"
    },
    {
      "inputs": [
        {
          "internalType": "address",
          "name": "operator",
          "type": "address"
        },
        {
          "internalType": "bool",
          "name": "approved",
          "type": "bool"
        }
      ],
      "name": "setApprovalForAll",
      "outputs": [],
      "stateMutability": "nonpayable",
      "type": "function"
    },
    {
      "inputs": [
        {
          "internalType": "bytes4",
          "name": "interfaceId",
          "type": "bytes4"
        }
      ],
      "name": "supportsInterface",
      "outputs": [
        {
          "internalType": "bool",
          "name": "",
          "type": "bool"
        }
      ],
      "stateMutability": "view",
      "type": "function",
      "constant": true
    },
    {
      "inputs": [],
      "name": "symbol",
      "outputs": [
        {
          "internalType": "string",
          "name": "",
          "type": "string"
        }
      ],
      "stateMutability": "view",
      "type": "function",
      "constant": true
    },
    {
      "inputs": [
        {
          "internalType": "uint256",
          "name": "index",
          "type": "uint256"
        }
      ],
      "name": "tokenByIndex",
      "outputs": [
        {
          "internalType": "uint256",
          "name": "",
          "type": "uint256"
        }
      ],
      "stateMutability": "view",
      "type": "function",
      "constant": true
    },
    {
      "inputs": [
        {
          "internalType": "address",
          "name": "owner",
          "type": "address"
        },
        {
          "internalType": "uint256",
          "name": "index",
          "type": "uint256"
        }
      ],
      "name": "tokenOfOwnerByIndex",
      "outputs": [
        {
          "internalType": "uint256",
          "name": "",
          "type": "uint256"
        }
      ],
      "stateMutability": "view",
      "type": "function",
      "constant": true
    },
    {
      "inputs": [
        {
          "internalType": "uint256",
          "name": "tokenId",
          "type": "uint256"
        }
      ],
      "name": "tokenURI",
      "outputs": [
        {
          "internalType": "string",
          "name": "",
          "type": "string"
        }
      ],
      "stateMutability": "view",
      "type": "function",
      "constant": true
    },
    {
      "inputs": [],
      "name": "totalSupply",
      "outputs": [
        {
          "internalType": "uint256",
          "name": "",
          "type": "uint256"
        }
      ],
      "stateMutability": "view",
      "type": "function",
      "constant": true
    },
    {
      "inputs": [
        {
          "internalType": "address",
          "name": "from",
          "type": "address"
        },
        {
          "internalType": "address",
          "name": "to",
          "type": "address"
        },
        {
          "internalType": "uint256",
          "name": "tokenId",
          "type": "uint256"
        }
      ],
      "name": "transferFrom",
      "outputs": [],
      "stateMutability": "nonpayable",
      "type": "function"
    },
    {
      "inputs": [
        {
          "internalType": "address",
          "name": "newOwner",
          "type": "address"
        }
      ],
      "name": "transferOwnership",
      "outputs": [],
      "stateMutability": "nonpayable",
      "type": "function"
    },
    {
      "inputs": [
        {
          "internalType": "address",
          "name": "_to",
          "type": "address"
        },
        {
          "internalType": "uint256",
          "name": "_count",
          "type": "uint256"
        }
      ],
      "name": "mint",
      "outputs": [],
      "stateMutability": "payable",
      "type": "function",
      "payable": true
    },
    {
      "inputs": [
        {
          "internalType": "uint256",
          "name": "_count",
          "type": "uint256"
        }
      ],
      "name": "getPrice",
      "outputs": [
        {
          "internalType": "uint256",
          "name": "",
          "type": "uint256"
        }
      ],
      "stateMutability": "view",
      "type": "function",
      "constant": true
    },
    {
      "inputs": [
        {
          "internalType": "uint256",
          "name": "_price",
          "type": "uint256"
        }
      ],
      "name": "setPrice",
      "outputs": [],
      "stateMutability": "nonpayable",
      "type": "function"
    },
    {
      "inputs": [
        {
          "internalType": "string",
          "name": "baseURI",
          "type": "string"
        }
      ],
      "name": "setBaseURI",
      "outputs": [],
      "stateMutability": "nonpayable",
      "type": "function"
    },
    {
      "inputs": [
        {
          "internalType": "address",
          "name": "_owner",
          "type": "address"
        }
      ],
      "name": "walletOfOwner",
      "outputs": [
        {
          "internalType": "uint256[]",
          "name": "",
          "type": "uint256[]"
        }
      ],
      "stateMutability": "view",
      "type": "function",
      "constant": true
    },
    {
      "inputs": [
        {
          "internalType": "bool",
          "name": "val",
          "type": "bool"
        }
      ],
      "name": "pause",
      "outputs": [],
      "stateMutability": "nonpayable",
      "type": "function"
    },
    {
      "inputs": [],
      "name": "withdrawAll",
      "outputs": [],
      "stateMutability": "payable",
      "type": "function",
      "payable": true
    }
  ],
  "bytecode": "0x600a805460ff60a01b1916600160a01b17905560e060405260376080818152906200249c60a03980516200003c91600b916020909101906200011b565b503480156200004a57600080fd5b506040805180820182526006808252654f7261636c6560d01b6020808401828152855180870190965292855284015281519192916200008c916000916200011b565b508051620000a29060019060208401906200011b565b505050620000bf620000b9620000c560201b60201c565b620000c9565b620001fe565b3390565b600a80546001600160a01b038381166001600160a01b0319831681179093556040519116919082907f8be0079c531659141344cd1fd0a4f28419497f9722a3daafe3b4186f6b6457e090600090a35050565b8280546200012990620001c1565b90600052602060002090601f0160209004810192826200014d576000855562000198565b82601f106200016857805160ff191683800117855562000198565b8280016001018555821562000198579182015b82811115620001985782518255916020019190600101906200017b565b50620001a6929150620001aa565b5090565b5b80821115620001a65760008155600101620001ab565b600281046001821680620001d657607f821691505b60208210811415620001f857634e487b7160e01b600052602260045260246000fd5b50919050565b61228e806200020e6000396000f3fe6080604052600436106101b75760003560e01c80635c975abb116100ec57806395d89b411161008a578063c87b56dd11610064578063c87b56dd14610496578063e7572230146104b6578063e985e9c5146104d6578063f2fde38b146104f6576101b7565b806395d89b4114610441578063a22cb46514610456578063b88d4fde14610476576101b7565b8063715018a6116100c6578063715018a6146103ef578063853828b6146104045780638da5cb5b1461040c57806391b7f5ed14610421576101b7565b80635c975abb1461039a5780636352211e146103af57806370a08231146103cf576101b7565b806323b872dd1161015957806342842e0e1161013357806342842e0e1461030d578063438b63001461032d5780634f6ccce71461035a57806355f804b31461037a576101b7565b806323b872dd146102ba5780632f745c59146102da57806340c10f19146102fa576101b7565b8063081812fc11610195578063081812fc14610236578063093d8c6414610263578063095ea7b31461028557806318160ddd146102a5576101b7565b806301ffc9a7146101bc57806302329a29146101f257806306fdde0314610214575b600080fd5b3480156101c857600080fd5b506101dc6101d73660046119ab565b610516565b6040516101e99190611b31565b60405180910390f35b3480156101fe57600080fd5b5061021261020d366004611991565b610543565b005b34801561022057600080fd5b506102296105a9565b6040516101e99190611b3c565b34801561024257600080fd5b50610256610251366004611a29565b61063b565b6040516101e99190611a9c565b34801561026f57600080fd5b5061027861067e565b6040516101e991906120ff565b34801561029157600080fd5b506102126102a0366004611968565b610684565b3480156102b157600080fd5b5061027861071c565b3480156102c657600080fd5b506102126102d536600461188b565b610722565b3480156102e657600080fd5b506102786102f5366004611968565b61075a565b610212610308366004611968565b6107ac565b34801561031957600080fd5b5061021261032836600461188b565b6108a9565b34801561033957600080fd5b5061034d61034836600461183f565b6108c4565b6040516101e99190611aed565b34801561036657600080fd5b50610278610375366004611a29565b610982565b34801561038657600080fd5b506102126103953660046119e3565b6109dd565b3480156103a657600080fd5b506101dc610a33565b3480156103bb57600080fd5b506102566103ca366004611a29565b610a43565b3480156103db57600080fd5b506102786103ea36600461183f565b610a78565b3480156103fb57600080fd5b50610212610abc565b610212610b07565b34801561041857600080fd5b50610256610b6a565b34801561042d57600080fd5b5061021261043c366004611a29565b610b79565b34801561044d57600080fd5b50610229610bbd565b34801561046257600080fd5b5061021261047136600461193f565b610bcc565b34801561048257600080fd5b506102126104913660046118c6565b610bde565b3480156104a257600080fd5b506102296104b1366004611a29565b610c1d565b3480156104c257600080fd5b506102786104d1366004611a29565b610ca0565b3480156104e257600080fd5b506101dc6104f1366004611859565b610cb0565b34801561050257600080fd5b5061021261051136600461183f565b610cde565b60006001600160e01b0319821663780e9d6360e01b148061053b575061053b82610d4f565b90505b919050565b61054b610d8f565b6001600160a01b031661055c610b6a565b6001600160a01b03161461058b5760405162461bcd60e51b815260040161058290611f05565b60405180910390fd5b600a8054911515600160a01b0260ff60a01b19909216919091179055565b6060600080546105b890612196565b80601f01602080910402602001604051908101604052809291908181526020018280546105e490612196565b80156106315780601f1061060657610100808354040283529160200191610631565b820191906000526020600020905b81548152906001019060200180831161061457829003601f168201915b5050505050905090565b600061064682610d93565b6106625760405162461bcd60e51b815260040161058290611eb9565b506000908152600460205260409020546001600160a01b031690565b611a0a81565b600061068f82610a43565b9050806001600160a01b0316836001600160a01b031614156106c35760405162461bcd60e51b815260040161058290611ffd565b806001600160a01b03166106d5610d8f565b6001600160a01b031614806106f157506106f1816104f1610d8f565b61070d5760405162461bcd60e51b815260040161058290611d72565b6107178383610db0565b505050565b60085490565b61073361072d610d8f565b82610e1e565b61074f5760405162461bcd60e51b815260040161058290612062565b610717838383610ea3565b600061076583610a78565b82106107835760405162461bcd60e51b815260040161058290611b4f565b506001600160a01b03919091166000908152600660209081526040808320938352929052205490565b600a54600160a01b900460ff16156107d65760405162461bcd60e51b815260040161058290611ce4565b60148111156107f75760405162461bcd60e51b81526004016105829061203e565b61080081610ca0565b34101561081f5760405162461bcd60e51b815260040161058290611fd2565b611a0a8161082b61071c565b6108359190612108565b11156108535760405162461bcd60e51b815260040161058290611d03565b611a0a61085e61071c565b1061087b5760405162461bcd60e51b815260040161058290611e97565b60005b81811015610717576108978361089261071c565b610fd0565b806108a1816121d1565b91505061087e565b61071783838360405180602001604052806000815250610bde565b606060006108d183610a78565b905060008167ffffffffffffffff8111156108fc57634e487b7160e01b600052604160045260246000fd5b604051908082528060200260200182016040528015610925578160200160208202803683370190505b50905060005b8281101561097a5761093d858261075a565b82828151811061095d57634e487b7160e01b600052603260045260246000fd5b602090810291909101015280610972816121d1565b91505061092b565b509392505050565b600061098c61071c565b82106109aa5760405162461bcd60e51b8152600401610582906120b3565b600882815481106109cb57634e487b7160e01b600052603260045260246000fd5b90600052602060002001549050919050565b6109e5610d8f565b6001600160a01b03166109f6610b6a565b6001600160a01b031614610a1c5760405162461bcd60e51b815260040161058290611f05565b8051610a2f90600b90602084019061170f565b5050565b600a54600160a01b900460ff1681565b6000818152600260205260408120546001600160a01b03168061053b5760405162461bcd60e51b815260040161058290611e19565b60006001600160a01b038216610aa05760405162461bcd60e51b815260040161058290611dcf565b506001600160a01b031660009081526003602052604090205490565b610ac4610d8f565b6001600160a01b0316610ad5610b6a565b6001600160a01b031614610afb5760405162461bcd60e51b815260040161058290611f05565b610b056000610fea565b565b610b0f610d8f565b6001600160a01b0316610b20610b6a565b6001600160a01b031614610b465760405162461bcd60e51b815260040161058290611f05565b60405133904780156108fc02916000818181858888f19350505050610b0557600080fd5b600a546001600160a01b031690565b610b81610d8f565b6001600160a01b0316610b92610b6a565b6001600160a01b031614610bb85760405162461bcd60e51b815260040161058290611f05565b600c55565b6060600180546105b890612196565b610a2f610bd7610d8f565b838361103c565b610bef610be9610d8f565b83610e1e565b610c0b5760405162461bcd60e51b815260040161058290612062565b610c17848484846110df565b50505050565b6060610c2882610d93565b610c445760405162461bcd60e51b815260040161058290611f83565b6000610c4e611112565b90506000815111610c6e5760405180602001604052806000815250610c99565b80610c7884611121565b604051602001610c89929190611a6d565b6040516020818303038152906040525b9392505050565b6000600c548261053b9190612134565b6001600160a01b03918216600090815260056020908152604080832093909416825291909152205460ff1690565b610ce6610d8f565b6001600160a01b0316610cf7610b6a565b6001600160a01b031614610d1d5760405162461bcd60e51b815260040161058290611f05565b6001600160a01b038116610d435760405162461bcd60e51b815260040161058290611bec565b610d4c81610fea565b50565b60006001600160e01b031982166380ac58cd60e01b1480610d8057506001600160e01b03198216635b5e139f60e01b145b8061053b575061053b8261123c565b3390565b6000908152600260205260409020546001600160a01b0316151590565b600081815260046020526040902080546001600160a01b0319166001600160a01b0384169081179091558190610de582610a43565b6001600160a01b03167f8c5be1e5ebec7d5bd14f71427d1e84f3dd0314c0f7b2291e5b200ac8c7c3b92560405160405180910390a45050565b6000610e2982610d93565b610e455760405162461bcd60e51b815260040161058290611d26565b6000610e5083610a43565b9050806001600160a01b0316846001600160a01b03161480610e8b5750836001600160a01b0316610e808461063b565b6001600160a01b0316145b80610e9b5750610e9b8185610cb0565b949350505050565b826001600160a01b0316610eb682610a43565b6001600160a01b031614610edc5760405162461bcd60e51b815260040161058290611f3a565b6001600160a01b038216610f025760405162461bcd60e51b815260040161058290611c69565b610f0d838383611255565b610f18600082610db0565b6001600160a01b0383166000908152600360205260408120805460019290610f41908490612153565b90915550506001600160a01b0382166000908152600360205260408120805460019290610f6f908490612108565b909155505060008181526002602052604080822080546001600160a01b0319166001600160a01b0386811691821790925591518493918716917fddf252ad1be2c89b69c2b068fc378daa952ba7f163c4a11628f55a4df523b3ef91a4505050565b610a2f8282604051806020016040528060008152506112de565b600a80546001600160a01b038381166001600160a01b0319831681179093556040519116919082907f8be0079c531659141344cd1fd0a4f28419497f9722a3daafe3b4186f6b6457e090600090a35050565b816001600160a01b0316836001600160a01b0316141561106e5760405162461bcd60e51b815260040161058290611cad565b6001600160a01b0383811660008181526005602090815260408083209487168084529490915290819020805460ff1916851515179055517f17307eab39ab6107e8899845ad3d59bd9653f200f220920489ca2b5937696c31906110d2908590611b31565b60405180910390a3505050565b6110ea848484610ea3565b6110f684848484611311565b610c175760405162461bcd60e51b815260040161058290611b9a565b6060600b80546105b890612196565b60608161114657506040805180820190915260018152600360fc1b602082015261053e565b8160005b8115611170578061115a816121d1565b91506111699050600a83612120565b915061114a565b60008167ffffffffffffffff81111561119957634e487b7160e01b600052604160045260246000fd5b6040519080825280601f01601f1916602001820160405280156111c3576020820181803683370190505b5090505b8415610e9b576111d8600183612153565b91506111e5600a866121ec565b6111f0906030612108565b60f81b81838151811061121357634e487b7160e01b600052603260045260246000fd5b60200101906001600160f81b031916908160001a905350611235600a86612120565b94506111c7565b6001600160e01b031981166301ffc9a760e01b14919050565b611260838383610717565b6001600160a01b03831661127c576112778161142c565b61129f565b816001600160a01b0316836001600160a01b03161461129f5761129f8382611470565b6001600160a01b0382166112bb576112b68161150d565b610717565b826001600160a01b0316826001600160a01b0316146107175761071782826115e6565b6112e8838361162a565b6112f56000848484611311565b6107175760405162461bcd60e51b815260040161058290611b9a565b6000611325846001600160a01b0316611709565b1561142157836001600160a01b031663150b7a02611341610d8f565b8786866040518563ffffffff1660e01b81526004016113639493929190611ab0565b602060405180830381600087803b15801561137d57600080fd5b505af19250505080156113ad575060408051601f3d908101601f191682019092526113aa918101906119c7565b60015b611407573d8080156113db576040519150601f19603f3d011682016040523d82523d6000602084013e6113e0565b606091505b5080516113ff5760405162461bcd60e51b815260040161058290611b9a565b805181602001fd5b6001600160e01b031916630a85bd0160e11b149050610e9b565b506001949350505050565b600880546000838152600960205260408120829055600182018355919091527ff3f7a9fe364faab93b216da50a3214154f22a0a2b415b23a84c8169e8b636ee30155565b6000600161147d84610a78565b6114879190612153565b6000838152600760205260409020549091508082146114da576001600160a01b03841660009081526006602090815260408083208584528252808320548484528184208190558352600790915290208190555b5060009182526007602090815260408084208490556001600160a01b039094168352600681528383209183525290812055565b60085460009061151f90600190612153565b6000838152600960205260408120546008805493945090928490811061155557634e487b7160e01b600052603260045260246000fd5b90600052602060002001549050806008838154811061158457634e487b7160e01b600052603260045260246000fd5b60009182526020808320909101929092558281526009909152604080822084905585825281205560088054806115ca57634e487b7160e01b600052603160045260246000fd5b6001900381819060005260206000200160009055905550505050565b60006115f183610a78565b6001600160a01b039093166000908152600660209081526040808320868452825280832085905593825260079052919091209190915550565b6001600160a01b0382166116505760405162461bcd60e51b815260040161058290611e62565b61165981610d93565b156116765760405162461bcd60e51b815260040161058290611c32565b61168260008383611255565b6001600160a01b03821660009081526003602052604081208054600192906116ab908490612108565b909155505060008181526002602052604080822080546001600160a01b0319166001600160a01b03861690811790915590518392907fddf252ad1be2c89b69c2b068fc378daa952ba7f163c4a11628f55a4df523b3ef908290a45050565b3b151590565b82805461171b90612196565b90600052602060002090601f01602090048101928261173d5760008555611783565b82601f1061175657805160ff1916838001178555611783565b82800160010185558215611783579182015b82811115611783578251825591602001919060010190611768565b5061178f929150611793565b5090565b5b8082111561178f5760008155600101611794565b600067ffffffffffffffff808411156117c3576117c361222c565b604051601f8501601f1916810160200182811182821017156117e7576117e761222c565b6040528481529150818385018610156117ff57600080fd5b8484602083013760006020868301015250509392505050565b80356001600160a01b038116811461053e57600080fd5b8035801515811461053e57600080fd5b600060208284031215611850578081fd5b610c9982611818565b6000806040838503121561186b578081fd5b61187483611818565b915061188260208401611818565b90509250929050565b60008060006060848603121561189f578081fd5b6118a884611818565b92506118b660208501611818565b9150604084013590509250925092565b600080600080608085870312156118db578081fd5b6118e485611818565b93506118f260208601611818565b925060408501359150606085013567ffffffffffffffff811115611914578182fd5b8501601f81018713611924578182fd5b611933878235602084016117a8565b91505092959194509250565b60008060408385031215611951578182fd5b61195a83611818565b91506118826020840161182f565b6000806040838503121561197a578182fd5b61198383611818565b946020939093013593505050565b6000602082840312156119a2578081fd5b610c998261182f565b6000602082840312156119bc578081fd5b8135610c9981612242565b6000602082840312156119d8578081fd5b8151610c9981612242565b6000602082840312156119f4578081fd5b813567ffffffffffffffff811115611a0a578182fd5b8201601f81018413611a1a578182fd5b610e9b848235602084016117a8565b600060208284031215611a3a578081fd5b5035919050565b60008151808452611a5981602086016020860161216a565b601f01601f19169290920160200192915050565b60008351611a7f81846020880161216a565b835190830190611a9381836020880161216a565b01949350505050565b6001600160a01b0391909116815260200190565b6001600160a01b0385811682528416602082015260408101839052608060608201819052600090611ae390830184611a41565b9695505050505050565b6020808252825182820181905260009190848201906040850190845b81811015611b2557835183529284019291840191600101611b09565b50909695505050505050565b901515815260200190565b600060208252610c996020830184611a41565b6020808252602b908201527f455243373231456e756d657261626c653a206f776e657220696e646578206f7560408201526a74206f6620626f756e647360a81b606082015260800190565b60208082526032908201527f4552433732313a207472616e7366657220746f206e6f6e20455243373231526560408201527131b2b4bb32b91034b6b83632b6b2b73a32b960711b606082015260800190565b60208082526026908201527f4f776e61626c653a206e6577206f776e657220697320746865207a65726f206160408201526564647265737360d01b606082015260800190565b6020808252601c908201527f4552433732313a20746f6b656e20616c7265616479206d696e74656400000000604082015260600190565b60208082526024908201527f4552433732313a207472616e7366657220746f20746865207a65726f206164646040820152637265737360e01b606082015260800190565b60208082526019908201527f4552433732313a20617070726f766520746f2063616c6c657200000000000000604082015260600190565b602080825260059082015264506175736560d81b604082015260600190565b60208082526009908201526813585e081b1a5b5a5d60ba1b604082015260600190565b6020808252602c908201527f4552433732313a206f70657261746f7220717565727920666f72206e6f6e657860408201526b34b9ba32b73a103a37b5b2b760a11b606082015260800190565b60208082526038908201527f4552433732313a20617070726f76652063616c6c6572206973206e6f74206f7760408201527f6e6572206e6f7220617070726f76656420666f7220616c6c0000000000000000606082015260800190565b6020808252602a908201527f4552433732313a2062616c616e636520717565727920666f7220746865207a65604082015269726f206164647265737360b01b606082015260800190565b60208082526029908201527f4552433732313a206f776e657220717565727920666f72206e6f6e657869737460408201526832b73a103a37b5b2b760b91b606082015260800190565b6020808252818101527f4552433732313a206d696e7420746f20746865207a65726f2061646472657373604082015260600190565b60208082526008908201526714d85b1948195b9960c21b604082015260600190565b6020808252602c908201527f4552433732313a20617070726f76656420717565727920666f72206e6f6e657860408201526b34b9ba32b73a103a37b5b2b760a11b606082015260800190565b6020808252818101527f4f776e61626c653a2063616c6c6572206973206e6f7420746865206f776e6572604082015260600190565b60208082526029908201527f4552433732313a207472616e73666572206f6620746f6b656e2074686174206960408201526839903737ba1037bbb760b91b606082015260800190565b6020808252602f908201527f4552433732314d657461646174613a2055524920717565727920666f72206e6f60408201526e3732bc34b9ba32b73a103a37b5b2b760891b606082015260800190565b60208082526011908201527056616c75652062656c6f7720707269636560781b604082015260600190565b60208082526021908201527f4552433732313a20617070726f76616c20746f2063757272656e74206f776e656040820152603960f91b606082015260800190565b6020808252600a90820152690457863656564732032360b41b604082015260600190565b60208082526031908201527f4552433732313a207472616e736665722063616c6c6572206973206e6f74206f6040820152701ddb995c881b9bdc88185c1c1c9bdd9959607a1b606082015260800190565b6020808252602c908201527f455243373231456e756d657261626c653a20676c6f62616c20696e646578206f60408201526b7574206f6620626f756e647360a01b606082015260800190565b90815260200190565b6000821982111561211b5761211b612200565b500190565b60008261212f5761212f612216565b500490565b600081600019048311821515161561214e5761214e612200565b500290565b60008282101561216557612165612200565b500390565b60005b8381101561218557818101518382015260200161216d565b83811115610c175750506000910152565b6002810460018216806121aa57607f821691505b602082108114156121cb57634e487b7160e01b600052602260045260246000fd5b50919050565b60006000198214156121e5576121e5612200565b5060010190565b6000826121fb576121fb612216565b500690565b634e487b7160e01b600052601160045260246000fd5b634e487b7160e01b600052601260045260246000fd5b634e487b7160e01b600052604160045260246000fd5b6001600160e01b031981168114610d4c57600080fdfea264697066735822122067a671e97d3fde1ccd51af3dae134628f16f18f6ac06f955a87978469797fbd064736f6c6343000800003368747470733a2f2f686c63623634616f336b2e657865637574652d6170692e75732d656173742d322e616d617a6f6e6177732e636f6d2f",
  "immutableReferences": {},
  "source": "// SPDX-License-Identifier: GPL-3.0\n\n/**\n \n *Luna Landers by LunaLand (LLN)\n *\n * 10,000 Lunalanders flying through the Metaverse.\n*/\n\npragma solidity ^0.8.0;\n\nimport \"@openzeppelin/contracts/utils/Context.sol\";\nimport \"@openzeppelin/contracts/access/Ownable.sol\";\nimport \"@openzeppelin/contracts/utils/introspection/IERC165.sol\";\nimport \"@openzeppelin/contracts/token/ERC721/IERC721.sol\";\nimport \"@openzeppelin/contracts/token/ERC721/extensions/IERC721Enumerable.sol\";\nimport \"@openzeppelin/contracts/utils/introspection/ERC165.sol\";\nimport \"@openzeppelin/contracts/utils/Strings.sol\";\nimport \"@openzeppelin/contracts/utils/Address.sol\";\nimport \"@openzeppelin/contracts/token/ERC721/IERC721Receiver.sol\";\nimport \"@openzeppelin/contracts/token/ERC721/ERC721.sol\";\nimport \"@openzeppelin/contracts/token/ERC721/extensions/ERC721Enumerable.sol\";\nimport \"@openzeppelin/contracts/token/ERC721/extensions/IERC721Metadata.sol\";\n\n\ncontract SmartContract is ERC721Enumerable, Ownable{\n    uint public constant MAX_NFTS = 6666;\n\tbool public paused = true;\n\tstring _baseTokenURI = \"https://hlcb64ao3k.execute-api.us-east-2.amazonaws.com/\";\n\tuint private price;\n\n    constructor() ERC721(\"Oracle\", \"Oracle\")  {\n\n    }\n\n    function mint(address _to, uint _count) public payable {\n        require(!paused, \"Pause\");\n        require(_count <= 20, \"Exceeds 20\");\n        require(msg.value >= getPrice(_count), \"Value below price\");\n        require(totalSupply() + _count <= MAX_NFTS, \"Max limit\");\n        require(totalSupply() < MAX_NFTS, \"Sale end\");\n        \n        for(uint i = 0; i < _count; i++){\n            _safeMint(_to, totalSupply());\n        }\n    }\n    \n    function getPrice(uint _count) public view returns (uint256) {\n        return _count * price;\n    }\n    \n    function setPrice(uint _price) external onlyOwner {\n        price = _price;\n    }\n        \n    function _baseURI() internal view virtual override returns (string memory) {\n        return _baseTokenURI;\n    }\n    \n    function setBaseURI(string memory baseURI) public onlyOwner {\n        _baseTokenURI = baseURI;\n    }\n\n    function walletOfOwner(address _owner) external view returns(uint256[] memory) {\n        uint tokenCount = balanceOf(_owner);\n        uint256[] memory tokensId = new uint256[](tokenCount);\n        for(uint i = 0; i < tokenCount; i++){\n            tokensId[i] = tokenOfOwnerByIndex(_owner, i);\n        }\n        return tokensId;\n    }\n    \n    function pause(bool val) public onlyOwner {\n        paused = val;\n    }\n\n    function withdrawAll() public payable onlyOwner {\n        require(payable(msg.sender).send(address(this).balance));\n    }\n    \n}",
  "sourcePath": "C:\\Users\\65909\\Documents\\Github\\nft\\frontend_base_dapp\\contracts\\SmartContract.sol",
  "compiler": {
    "name": "solc",
    "version": "0.8.0+commit.c7dfd78e.Emscripten.clang"
  },
  "schemaVersion": "3.4.4",
  "updatedAt": "2021-12-18T23:11:42.903Z",
  "networkType": "ethereum",
  "devdoc": {
    "kind": "dev",
    "methods": {
      "approve(address,uint256)": {
        "details": "See {IERC721-approve}."
      },
      "balanceOf(address)": {
        "details": "See {IERC721-balanceOf}."
      },
      "getApproved(uint256)": {
        "details": "See {IERC721-getApproved}."
      },
      "isApprovedForAll(address,address)": {
        "details": "See {IERC721-isApprovedForAll}."
      },
      "name()": {
        "details": "See {IERC721Metadata-name}."
      },
      "owner()": {
        "details": "Returns the address of the current owner."
      },
      "ownerOf(uint256)": {
        "details": "See {IERC721-ownerOf}."
      },
      "renounceOwnership()": {
        "details": "Leaves the contract without owner. It will not be possible to call `onlyOwner` functions anymore. Can only be called by the current owner. NOTE: Renouncing ownership will leave the contract without an owner, thereby removing any functionality that is only available to the owner."
      },
      "safeTransferFrom(address,address,uint256)": {
        "details": "See {IERC721-safeTransferFrom}."
      },
      "safeTransferFrom(address,address,uint256,bytes)": {
        "details": "See {IERC721-safeTransferFrom}."
      },
      "setApprovalForAll(address,bool)": {
        "details": "See {IERC721-setApprovalForAll}."
      },
      "supportsInterface(bytes4)": {
        "details": "See {IERC165-supportsInterface}."
      },
      "symbol()": {
        "details": "See {IERC721Metadata-symbol}."
      },
      "tokenByIndex(uint256)": {
        "details": "See {IERC721Enumerable-tokenByIndex}."
      },
      "tokenOfOwnerByIndex(address,uint256)": {
        "details": "See {IERC721Enumerable-tokenOfOwnerByIndex}."
      },
      "tokenURI(uint256)": {
        "details": "See {IERC721Metadata-tokenURI}."
      },
      "totalSupply()": {
        "details": "See {IERC721Enumerable-totalSupply}."
      },
      "transferFrom(address,address,uint256)": {
        "details": "See {IERC721-transferFrom}."
      },
      "transferOwnership(address)": {
        "details": "Transfers ownership of the contract to a new account (`newOwner`). Can only be called by the current owner."
      }
    },
    "version": 1
  },
  "userdoc": {
    "kind": "user",
    "methods": {},
    "version": 1
  }
}