{
  "contractName": "SmartContract",
  "abi": [
    {
      "inputs": [],
      "stateMutability": "nonpayable",
      "type": "constructor"
    },
    {
      "anonymous": false,
      "inputs": [
        {
          "indexed": true,
          "internalType": "address",
          "name": "owner",
          "type": "address"
        },
        {
          "indexed": true,
          "internalType": "address",
          "name": "approved",
          "type": "address"
        },
        {
          "indexed": true,
          "internalType": "uint256",
          "name": "tokenId",
          "type": "uint256"
        }
      ],
      "name": "Approval",
      "type": "event"
    },
    {
      "anonymous": false,
      "inputs": [
        {
          "indexed": true,
          "internalType": "address",
          "name": "owner",
          "type": "address"
        },
        {
          "indexed": true,
          "internalType": "address",
          "name": "operator",
          "type": "address"
        },
        {
          "indexed": false,
          "internalType": "bool",
          "name": "approved",
          "type": "bool"
        }
      ],
      "name": "ApprovalForAll",
      "type": "event"
    },
    {
      "anonymous": false,
      "inputs": [
        {
          "indexed": true,
          "internalType": "address",
          "name": "previousOwner",
          "type": "address"
        },
        {
          "indexed": true,
          "internalType": "address",
          "name": "newOwner",
          "type": "address"
        }
      ],
      "name": "OwnershipTransferred",
      "type": "event"
    },
    {
      "anonymous": false,
      "inputs": [
        {
          "indexed": true,
          "internalType": "address",
          "name": "from",
          "type": "address"
        },
        {
          "indexed": true,
          "internalType": "address",
          "name": "to",
          "type": "address"
        },
        {
          "indexed": true,
          "internalType": "uint256",
          "name": "tokenId",
          "type": "uint256"
        }
      ],
      "name": "Transfer",
      "type": "event"
    },
    {
      "inputs": [
        {
          "internalType": "address",
          "name": "to",
          "type": "address"
        },
        {
          "internalType": "uint256",
          "name": "tokenId",
          "type": "uint256"
        }
      ],
      "name": "approve",
      "outputs": [],
      "stateMutability": "nonpayable",
      "type": "function"
    },
    {
      "inputs": [
        {
          "internalType": "address",
          "name": "owner",
          "type": "address"
        }
      ],
      "name": "balanceOf",
      "outputs": [
        {
          "internalType": "uint256",
          "name": "",
          "type": "uint256"
        }
      ],
      "stateMutability": "view",
      "type": "function",
      "constant": true
    },
    {
      "inputs": [
        {
          "internalType": "uint256",
          "name": "tokenId",
          "type": "uint256"
        }
      ],
      "name": "getApproved",
      "outputs": [
        {
          "internalType": "address",
          "name": "",
          "type": "address"
        }
      ],
      "stateMutability": "view",
      "type": "function",
      "constant": true
    },
    {
      "inputs": [
        {
          "internalType": "address",
          "name": "owner",
          "type": "address"
        },
        {
          "internalType": "address",
          "name": "operator",
          "type": "address"
        }
      ],
      "name": "isApprovedForAll",
      "outputs": [
        {
          "internalType": "bool",
          "name": "",
          "type": "bool"
        }
      ],
      "stateMutability": "view",
      "type": "function",
      "constant": true
    },
    {
      "inputs": [],
      "name": "name",
      "outputs": [
        {
          "internalType": "string",
          "name": "",
          "type": "string"
        }
      ],
      "stateMutability": "view",
      "type": "function",
      "constant": true
    },
    {
      "inputs": [],
      "name": "owner",
      "outputs": [
        {
          "internalType": "address",
          "name": "",
          "type": "address"
        }
      ],
      "stateMutability": "view",
      "type": "function",
      "constant": true
    },
    {
      "inputs": [
        {
          "internalType": "uint256",
          "name": "tokenId",
          "type": "uint256"
        }
      ],
      "name": "ownerOf",
      "outputs": [
        {
          "internalType": "address",
          "name": "",
          "type": "address"
        }
      ],
      "stateMutability": "view",
      "type": "function",
      "constant": true
    },
    {
      "inputs": [],
      "name": "renounceOwnership",
      "outputs": [],
      "stateMutability": "nonpayable",
      "type": "function"
    },
    {
      "inputs": [
        {
          "internalType": "address",
          "name": "from",
          "type": "address"
        },
        {
          "internalType": "address",
          "name": "to",
          "type": "address"
        },
        {
          "internalType": "uint256",
          "name": "tokenId",
          "type": "uint256"
        }
      ],
      "name": "safeTransferFrom",
      "outputs": [],
      "stateMutability": "nonpayable",
      "type": "function"
    },
    {
      "inputs": [
        {
          "internalType": "address",
          "name": "from",
          "type": "address"
        },
        {
          "internalType": "address",
          "name": "to",
          "type": "address"
        },
        {
          "internalType": "uint256",
          "name": "tokenId",
          "type": "uint256"
        },
        {
          "internalType": "bytes",
          "name": "_data",
          "type": "bytes"
        }
      ],
      "name": "safeTransferFrom",
      "outputs": [],
      "stateMutability": "nonpayable",
      "type": "function"
    },
    {
      "inputs": [
        {
          "internalType": "address",
          "name": "operator",
          "type": "address"
        },
        {
          "internalType": "bool",
          "name": "approved",
          "type": "bool"
        }
      ],
      "name": "setApprovalForAll",
      "outputs": [],
      "stateMutability": "nonpayable",
      "type": "function"
    },
    {
      "inputs": [
        {
          "internalType": "bytes4",
          "name": "interfaceId",
          "type": "bytes4"
        }
      ],
      "name": "supportsInterface",
      "outputs": [
        {
          "internalType": "bool",
          "name": "",
          "type": "bool"
        }
      ],
      "stateMutability": "view",
      "type": "function",
      "constant": true
    },
    {
      "inputs": [],
      "name": "symbol",
      "outputs": [
        {
          "internalType": "string",
          "name": "",
          "type": "string"
        }
      ],
      "stateMutability": "view",
      "type": "function",
      "constant": true
    },
    {
      "inputs": [
        {
          "internalType": "address",
          "name": "from",
          "type": "address"
        },
        {
          "internalType": "address",
          "name": "to",
          "type": "address"
        },
        {
          "internalType": "uint256",
          "name": "tokenId",
          "type": "uint256"
        }
      ],
      "name": "transferFrom",
      "outputs": [],
      "stateMutability": "nonpayable",
      "type": "function"
    },
    {
      "inputs": [
        {
          "internalType": "address",
          "name": "newOwner",
          "type": "address"
        }
      ],
      "name": "transferOwnership",
      "outputs": [],
      "stateMutability": "nonpayable",
      "type": "function"
    },
    {
      "inputs": [
        {
          "internalType": "uint256",
          "name": "tokenId",
          "type": "uint256"
        }
      ],
      "name": "tokenURI",
      "outputs": [
        {
          "internalType": "string",
          "name": "",
          "type": "string"
        }
      ],
      "stateMutability": "view",
      "type": "function",
      "constant": true
    },
    {
      "inputs": [],
      "name": "getAllTokens",
      "outputs": [
        {
          "components": [
            {
              "internalType": "uint256",
              "name": "id",
              "type": "uint256"
            },
            {
              "internalType": "string",
              "name": "uri",
              "type": "string"
            }
          ],
          "internalType": "struct SmartContract.RenderToken[]",
          "name": "",
          "type": "tuple[]"
        }
      ],
      "stateMutability": "view",
      "type": "function",
      "constant": true
    },
    {
      "inputs": [
        {
          "internalType": "address",
          "name": "recipient",
          "type": "address"
        },
        {
          "internalType": "string",
          "name": "uri",
          "type": "string"
        }
      ],
      "name": "mint",
      "outputs": [
        {
          "internalType": "uint256",
          "name": "",
          "type": "uint256"
        }
      ],
      "stateMutability": "nonpayable",
      "type": "function"
    }
  ],
  "bytecode": "0x60806040523480156200001157600080fd5b50604080518082018252600e81526d14db585c9d0810dbdb9d1c9858dd60921b602080830191825283518085019094526002845261534360f01b9084015281519192916200006291600091620000f1565b50805162000078906001906020840190620000f1565b505050620000956200008f6200009b60201b60201c565b6200009f565b620001d4565b3390565b600680546001600160a01b038381166001600160a01b0319831681179093556040519116919082907f8be0079c531659141344cd1fd0a4f28419497f9722a3daafe3b4186f6b6457e090600090a35050565b828054620000ff9062000197565b90600052602060002090601f0160209004810192826200012357600085556200016e565b82601f106200013e57805160ff19168380011785556200016e565b828001600101855582156200016e579182015b828111156200016e57825182559160200191906001019062000151565b506200017c92915062000180565b5090565b5b808211156200017c576000815560010162000181565b600281046001821680620001ac57607f821691505b60208210811415620001ce57634e487b7160e01b600052602260045260246000fd5b50919050565b61181380620001e46000396000f3fe608060405234801561001057600080fd5b50600436106101165760003560e01c8063715018a6116100a2578063b88d4fde11610071578063b88d4fde14610227578063c87b56dd1461023a578063d0def5211461024d578063e985e9c514610260578063f2fde38b1461027357610116565b8063715018a6146101fc5780638da5cb5b1461020457806395d89b411461020c578063a22cb4651461021457610116565b806323b872dd116100e957806323b872dd1461018e5780632a5c792a146101a157806342842e0e146101b65780636352211e146101c957806370a08231146101dc57610116565b806301ffc9a71461011b57806306fdde0314610144578063081812fc14610159578063095ea7b314610179575b600080fd5b61012e61012936600461112c565b610286565b60405161013b9190611289565b60405180910390f35b61014c6102ce565b60405161013b9190611294565b61016c610167366004611164565b610360565b60405161013b91906111c7565b61018c610187366004611103565b6103ac565b005b61018c61019c366004610fb6565b610444565b6101a961047c565b60405161013b9190611218565b61018c6101c4366004610fb6565b610582565b61016c6101d7366004611164565b61059d565b6101ef6101ea366004610f6a565b6105d2565b60405161013b919061170d565b61018c610616565b61016c610661565b61014c610670565b61018c61022236600461106a565b61067f565b61018c610235366004610ff1565b61074d565b61014c610248366004611164565b61078c565b6101ef61025b3660046110a4565b610852565b61012e61026e366004610f84565b610886565b61018c610281366004610f6a565b6108b4565b60006001600160e01b031982166380ac58cd60e01b14806102b757506001600160e01b03198216635b5e139f60e01b145b806102c657506102c682610925565b90505b919050565b6060600080546102dd90611745565b80601f016020809104026020016040519081016040528092919081815260200182805461030990611745565b80156103565780601f1061032b57610100808354040283529160200191610356565b820191906000526020600020905b81548152906001019060200180831161033957829003601f168201915b5050505050905090565b600061036b8261093e565b6103905760405162461bcd60e51b815260040161038790611562565b60405180910390fd5b506000908152600460205260409020546001600160a01b031690565b60006103b78261059d565b9050806001600160a01b0316836001600160a01b031614156103eb5760405162461bcd60e51b81526004016103879061167b565b806001600160a01b03166103fd61095b565b6001600160a01b0316148061041957506104198161026e61095b565b6104355760405162461bcd60e51b81526004016103879061143d565b61043f838361095f565b505050565b61045561044f61095b565b826109cd565b6104715760405162461bcd60e51b8152600401610387906116bc565b61043f838383610a52565b6060600061048a6007610b7f565b90506000808267ffffffffffffffff8111156104b657634e487b7160e01b600052604160045260246000fd5b6040519080825280602002602001820160405280156104ef57816020015b6104dc610e30565b8152602001906001900390816104d45790505b50905060005b8381101561057a576105068361093e565b1561055a5760006105168461078c565b905060405180604001604052808581526020018281525083858151811061054d57634e487b7160e01b600052603260045260246000fd5b6020026020010181905250505b8261056481611780565b935050808061057290611780565b9150506104f5565b509250505090565b61043f8383836040518060200160405280600081525061074d565b6000818152600260205260408120546001600160a01b0316806102c65760405162461bcd60e51b8152600401610387906114e4565b60006001600160a01b0382166105fa5760405162461bcd60e51b81526004016103879061149a565b506001600160a01b031660009081526003602052604090205490565b61061e61095b565b6001600160a01b031661062f610661565b6001600160a01b0316146106555760405162461bcd60e51b8152600401610387906115ae565b61065f6000610b83565b565b6006546001600160a01b031690565b6060600180546102dd90611745565b61068761095b565b6001600160a01b0316826001600160a01b031614156106b85760405162461bcd60e51b8152600401610387906113ba565b80600560006106c561095b565b6001600160a01b03908116825260208083019390935260409182016000908120918716808252919093529120805460ff19169215159290921790915561070961095b565b6001600160a01b03167f17307eab39ab6107e8899845ad3d59bd9653f200f220920489ca2b5937696c31836040516107419190611289565b60405180910390a35050565b61075e61075861095b565b836109cd565b61077a5760405162461bcd60e51b8152600401610387906116bc565b61078684848484610bd5565b50505050565b60606107978261093e565b6107b35760405162461bcd60e51b81526004016103879061162c565b600082815260086020526040812080546107cc90611745565b80601f01602080910402602001604051908101604052809291908181526020018280546107f890611745565b80156108455780601f1061081a57610100808354040283529160200191610845565b820191906000526020600020905b81548152906001019060200180831161082857829003601f168201915b5093979650505050505050565b60008061085f6007610b7f565b905061086b8482610c08565b6108758184610ce7565b61087f6007610d06565b9392505050565b6001600160a01b03918216600090815260056020908152604080832093909416825291909152205460ff1690565b6108bc61095b565b6001600160a01b03166108cd610661565b6001600160a01b0316146108f35760405162461bcd60e51b8152600401610387906115ae565b6001600160a01b0381166109195760405162461bcd60e51b8152600401610387906112f9565b61092281610b83565b50565b6001600160e01b031981166301ffc9a760e01b14919050565b6000908152600260205260409020546001600160a01b0316151590565b3390565b600081815260046020526040902080546001600160a01b0319166001600160a01b03841690811790915581906109948261059d565b6001600160a01b03167f8c5be1e5ebec7d5bd14f71427d1e84f3dd0314c0f7b2291e5b200ac8c7c3b92560405160405180910390a45050565b60006109d88261093e565b6109f45760405162461bcd60e51b8152600401610387906113f1565b60006109ff8361059d565b9050806001600160a01b0316846001600160a01b03161480610a3a5750836001600160a01b0316610a2f84610360565b6001600160a01b0316145b80610a4a5750610a4a8185610886565b949350505050565b826001600160a01b0316610a658261059d565b6001600160a01b031614610a8b5760405162461bcd60e51b8152600401610387906115e3565b6001600160a01b038216610ab15760405162461bcd60e51b815260040161038790611376565b610abc83838361043f565b610ac760008261095f565b6001600160a01b0383166000908152600360205260408120805460019290610af090849061172e565b90915550506001600160a01b0382166000908152600360205260408120805460019290610b1e908490611716565b909155505060008181526002602052604080822080546001600160a01b0319166001600160a01b0386811691821790925591518493918716917fddf252ad1be2c89b69c2b068fc378daa952ba7f163c4a11628f55a4df523b3ef91a4505050565b5490565b600680546001600160a01b038381166001600160a01b0319831681179093556040519116919082907f8be0079c531659141344cd1fd0a4f28419497f9722a3daafe3b4186f6b6457e090600090a35050565b610be0848484610a52565b610bec84848484610d0f565b6107865760405162461bcd60e51b8152600401610387906112a7565b6001600160a01b038216610c2e5760405162461bcd60e51b81526004016103879061152d565b610c378161093e565b15610c545760405162461bcd60e51b81526004016103879061133f565b610c606000838361043f565b6001600160a01b0382166000908152600360205260408120805460019290610c89908490611716565b909155505060008181526002602052604080822080546001600160a01b0319166001600160a01b03861690811790915590518392907fddf252ad1be2c89b69c2b068fc378daa952ba7f163c4a11628f55a4df523b3ef908290a45050565b6000828152600860209081526040909120825161043f92840190610e4a565b80546001019055565b6000610d23846001600160a01b0316610e2a565b15610e1f57836001600160a01b031663150b7a02610d3f61095b565b8786866040518563ffffffff1660e01b8152600401610d6194939291906111db565b602060405180830381600087803b158015610d7b57600080fd5b505af1925050508015610dab575060408051601f3d908101601f19168201909252610da891810190611148565b60015b610e05573d808015610dd9576040519150601f19603f3d011682016040523d82523d6000602084013e610dde565b606091505b508051610dfd5760405162461bcd60e51b8152600401610387906112a7565b805181602001fd5b6001600160e01b031916630a85bd0160e11b149050610a4a565b506001949350505050565b3b151590565b604051806040016040528060008152602001606081525090565b828054610e5690611745565b90600052602060002090601f016020900481019282610e785760008555610ebe565b82601f10610e9157805160ff1916838001178555610ebe565b82800160010185558215610ebe579182015b82811115610ebe578251825591602001919060010190610ea3565b50610eca929150610ece565b5090565b5b80821115610eca5760008155600101610ecf565b600067ffffffffffffffff80841115610efe57610efe6117b1565b604051601f8501601f191681016020018281118282101715610f2257610f226117b1565b604052848152915081838501861015610f3a57600080fd5b8484602083013760006020868301015250509392505050565b80356001600160a01b03811681146102c957600080fd5b600060208284031215610f7b578081fd5b61087f82610f53565b60008060408385031215610f96578081fd5b610f9f83610f53565b9150610fad60208401610f53565b90509250929050565b600080600060608486031215610fca578081fd5b610fd384610f53565b9250610fe160208501610f53565b9150604084013590509250925092565b60008060008060808587031215611006578081fd5b61100f85610f53565b935061101d60208601610f53565b925060408501359150606085013567ffffffffffffffff81111561103f578182fd5b8501601f8101871361104f578182fd5b61105e87823560208401610ee3565b91505092959194509250565b6000806040838503121561107c578182fd5b61108583610f53565b915060208301358015158114611099578182fd5b809150509250929050565b600080604083850312156110b6578182fd5b6110bf83610f53565b9150602083013567ffffffffffffffff8111156110da578182fd5b8301601f810185136110ea578182fd5b6110f985823560208401610ee3565b9150509250929050565b60008060408385031215611115578182fd5b61111e83610f53565b946020939093013593505050565b60006020828403121561113d578081fd5b813561087f816117c7565b600060208284031215611159578081fd5b815161087f816117c7565b600060208284031215611175578081fd5b5035919050565b60008151808452815b818110156111a157602081850181015186830182015201611185565b818111156111b25782602083870101525b50601f01601f19169290920160200192915050565b6001600160a01b0391909116815260200190565b6001600160a01b038581168252841660208201526040810183905260806060820181905260009061120e9083018461117c565b9695505050505050565b60208082528251828201819052600091906040908185019080840286018301878501865b8381101561127b57888303603f190185528151805184528701518784018790526112688785018261117c565b958801959350509086019060010161123c565b509098975050505050505050565b901515815260200190565b60006020825261087f602083018461117c565b60208082526032908201527f4552433732313a207472616e7366657220746f206e6f6e20455243373231526560408201527131b2b4bb32b91034b6b83632b6b2b73a32b960711b606082015260800190565b60208082526026908201527f4f776e61626c653a206e6577206f776e657220697320746865207a65726f206160408201526564647265737360d01b606082015260800190565b6020808252601c908201527f4552433732313a20746f6b656e20616c7265616479206d696e74656400000000604082015260600190565b60208082526024908201527f4552433732313a207472616e7366657220746f20746865207a65726f206164646040820152637265737360e01b606082015260800190565b60208082526019908201527f4552433732313a20617070726f766520746f2063616c6c657200000000000000604082015260600190565b6020808252602c908201527f4552433732313a206f70657261746f7220717565727920666f72206e6f6e657860408201526b34b9ba32b73a103a37b5b2b760a11b606082015260800190565b60208082526038908201527f4552433732313a20617070726f76652063616c6c6572206973206e6f74206f7760408201527f6e6572206e6f7220617070726f76656420666f7220616c6c0000000000000000606082015260800190565b6020808252602a908201527f4552433732313a2062616c616e636520717565727920666f7220746865207a65604082015269726f206164647265737360b01b606082015260800190565b60208082526029908201527f4552433732313a206f776e657220717565727920666f72206e6f6e657869737460408201526832b73a103a37b5b2b760b91b606082015260800190565b6020808252818101527f4552433732313a206d696e7420746f20746865207a65726f2061646472657373604082015260600190565b6020808252602c908201527f4552433732313a20617070726f76656420717565727920666f72206e6f6e657860408201526b34b9ba32b73a103a37b5b2b760a11b606082015260800190565b6020808252818101527f4f776e61626c653a2063616c6c6572206973206e6f7420746865206f776e6572604082015260600190565b60208082526029908201527f4552433732313a207472616e73666572206f6620746f6b656e2074686174206960408201526839903737ba1037bbb760b91b606082015260800190565b6020808252602f908201527f4552433732314d657461646174613a2055524920717565727920666f72206e6f60408201526e3732bc34b9ba32b73a103a37b5b2b760891b606082015260800190565b60208082526021908201527f4552433732313a20617070726f76616c20746f2063757272656e74206f776e656040820152603960f91b606082015260800190565b60208082526031908201527f4552433732313a207472616e736665722063616c6c6572206973206e6f74206f6040820152701ddb995c881b9bdc88185c1c1c9bdd9959607a1b606082015260800190565b90815260200190565b600082198211156117295761172961179b565b500190565b6000828210156117405761174061179b565b500390565b60028104600182168061175957607f821691505b6020821081141561177a57634e487b7160e01b600052602260045260246000fd5b50919050565b60006000198214156117945761179461179b565b5060010190565b634e487b7160e01b600052601160045260246000fd5b634e487b7160e01b600052604160045260246000fd5b6001600160e01b03198116811461092257600080fdfea264697066735822122075d76c3f46f35b6915acdf8a0381440b8c6de8a5f9905abd553f70db80465b2464736f6c63430008000033",
  "immutableReferences": {},
  "source": "// SPDX-License-Identifier: MIT\n\nimport \"@openzeppelin/contracts/token/ERC721/ERC721.sol\";\nimport \"@openzeppelin/contracts/utils/Counters.sol\";\nimport \"@openzeppelin/contracts/access/Ownable.sol\";\n\ncontract SmartContract is ERC721, Ownable {\n  using Counters for Counters.Counter;\n  using Strings for uint256;\n  Counters.Counter private _tokenIds;\n  mapping(uint256 => string) private _tokenURIs;\n\n  struct RenderToken {\n    uint256 id;\n    string uri;\n  }\n\n  constructor() ERC721(\"Smart Contract\", \"SC\") {}\n\n  function _setTokenURI(uint256 tokenId, string memory _tokenURI)\n    internal\n    virtual\n  {\n    _tokenURIs[tokenId] = _tokenURI;\n  }\n\n  function tokenURI(uint256 tokenId)\n    public\n    view\n    virtual\n    override\n    returns (string memory)\n  {\n    require(\n      _exists(tokenId),\n      \"ERC721Metadata: URI query for nonexistent token\"\n    );\n    string memory _tokenURI = _tokenURIs[tokenId];\n    return _tokenURI;\n  }\n\n  function getAllTokens() public view returns (RenderToken[] memory) {\n    uint256 latestTokenCount = _tokenIds.current();\n    uint256 counter = 0;\n    RenderToken[] memory result = new RenderToken[](latestTokenCount);\n    for (uint256 i = 0; i < latestTokenCount; i++) {\n      if (_exists(counter)) {\n        string memory uri = tokenURI(counter);\n        result[counter] = RenderToken(counter, uri);\n      }\n      counter++;\n    }\n    return result;\n  }\n\n  function mint(address recipient, string memory uri) public returns (uint256) {\n    uint256 newItemId = _tokenIds.current();\n    _mint(recipient, newItemId);\n    _setTokenURI(newItemId, uri);\n    _tokenIds.increment();\n    return newItemId;\n  }\n}\n",
  "sourcePath": "/Users/danielbotha/Desktop/Tutorial/frontend_base_dapp/contracts/SmartContract.sol",
  "compiler": {
    "name": "solc",
    "version": "0.8.0+commit.c7dfd78e.Emscripten.clang"
  },
  "schemaVersion": "3.4.1",
  "updatedAt": "2021-08-20T07:52:49.683Z",
  "networkType": "ethereum",
  "devdoc": {
    "kind": "dev",
    "methods": {
      "approve(address,uint256)": {
        "details": "See {IERC721-approve}."
      },
      "balanceOf(address)": {
        "details": "See {IERC721-balanceOf}."
      },
      "getApproved(uint256)": {
        "details": "See {IERC721-getApproved}."
      },
      "isApprovedForAll(address,address)": {
        "details": "See {IERC721-isApprovedForAll}."
      },
      "name()": {
        "details": "See {IERC721Metadata-name}."
      },
      "owner()": {
        "details": "Returns the address of the current owner."
      },
      "ownerOf(uint256)": {
        "details": "See {IERC721-ownerOf}."
      },
      "renounceOwnership()": {
        "details": "Leaves the contract without owner. It will not be possible to call `onlyOwner` functions anymore. Can only be called by the current owner. NOTE: Renouncing ownership will leave the contract without an owner, thereby removing any functionality that is only available to the owner."
      },
      "safeTransferFrom(address,address,uint256)": {
        "details": "See {IERC721-safeTransferFrom}."
      },
      "safeTransferFrom(address,address,uint256,bytes)": {
        "details": "See {IERC721-safeTransferFrom}."
      },
      "setApprovalForAll(address,bool)": {
        "details": "See {IERC721-setApprovalForAll}."
      },
      "supportsInterface(bytes4)": {
        "details": "See {IERC165-supportsInterface}."
      },
      "symbol()": {
        "details": "See {IERC721Metadata-symbol}."
      },
      "tokenURI(uint256)": {
        "details": "See {IERC721Metadata-tokenURI}."
      },
      "transferFrom(address,address,uint256)": {
        "details": "See {IERC721-transferFrom}."
      },
      "transferOwnership(address)": {
        "details": "Transfers ownership of the contract to a new account (`newOwner`). Can only be called by the current owner."
      }
    },
    "version": 1
  },
  "userdoc": {
    "kind": "user",
    "methods": {},
    "version": 1
  }
}