{
  "contractName": "SmartContract",
  "abi": [
    {
      "inputs": [
        {
          "internalType": "string",
          "name": "_name",
          "type": "string"
        },
        {
          "internalType": "string",
          "name": "_symbol",
          "type": "string"
        }
      ],
      "stateMutability": "nonpayable",
      "type": "constructor"
    },
    {
      "inputs": [],
      "name": "name",
      "outputs": [
        {
          "internalType": "string",
          "name": "",
          "type": "string"
        }
      ],
      "stateMutability": "view",
      "type": "function",
      "constant": true
    },
    {
      "inputs": [],
      "name": "symbol",
      "outputs": [
        {
          "internalType": "string",
          "name": "",
          "type": "string"
        }
      ],
      "stateMutability": "view",
      "type": "function",
      "constant": true
    },
    {
      "inputs": [
        {
          "internalType": "string",
          "name": "_name",
          "type": "string"
        }
      ],
      "name": "updateName",
      "outputs": [],
      "stateMutability": "nonpayable",
      "type": "function"
    }
  ],
  "bytecode": "0x608060405234801561001057600080fd5b5060405161059e38038061059e83398101604081905261002f91610197565b815161004290600090602085019061005e565b50805161005690600190602084019061005e565b505050610248565b82805461006a906101f7565b90600052602060002090601f01602090048101928261008c57600085556100d2565b82601f106100a557805160ff19168380011785556100d2565b828001600101855582156100d2579182015b828111156100d25782518255916020019190600101906100b7565b506100de9291506100e2565b5090565b5b808211156100de57600081556001016100e3565b600082601f830112610107578081fd5b81516001600160401b038082111561012157610121610232565b6040516020601f8401601f191682018101838111838210171561014657610146610232565b604052838252858401810187101561015c578485fd5b8492505b8383101561017d5785830181015182840182015291820191610160565b8383111561018d57848185840101525b5095945050505050565b600080604083850312156101a9578182fd5b82516001600160401b03808211156101bf578384fd5b6101cb868387016100f7565b935060208501519150808211156101e0578283fd5b506101ed858286016100f7565b9150509250929050565b60028104600182168061020b57607f821691505b6020821081141561022c57634e487b7160e01b600052602260045260246000fd5b50919050565b634e487b7160e01b600052604160045260246000fd5b610347806102576000396000f3fe608060405234801561001057600080fd5b50600436106100415760003560e01c806306fdde031461004657806384da92a71461006457806395d89b4114610079575b600080fd5b61004e610081565b60405161005b919061026d565b60405180910390f35b6100776100723660046101cc565b61010f565b005b61004e610126565b6000805461008e906102c0565b80601f01602080910402602001604051908101604052809291908181526020018280546100ba906102c0565b80156101075780601f106100dc57610100808354040283529160200191610107565b820191906000526020600020905b8154815290600101906020018083116100ea57829003601f168201915b505050505081565b8051610122906000906020840190610133565b5050565b6001805461008e906102c0565b82805461013f906102c0565b90600052602060002090601f01602090048101928261016157600085556101a7565b82601f1061017a57805160ff19168380011785556101a7565b828001600101855582156101a7579182015b828111156101a757825182559160200191906001019061018c565b506101b39291506101b7565b5090565b5b808211156101b357600081556001016101b8565b600060208083850312156101de578182fd5b823567ffffffffffffffff808211156101f5578384fd5b818501915085601f830112610208578384fd5b81358181111561021a5761021a6102fb565b604051601f8201601f191681018501838111828210171561023d5761023d6102fb565b6040528181528382018501881015610253578586fd5b818585018683013790810190930193909352509392505050565b6000602080835283518082850152825b818110156102995785810183015185820160400152820161027d565b818111156102aa5783604083870101525b50601f01601f1916929092016040019392505050565b6002810460018216806102d457607f821691505b602082108114156102f557634e487b7160e01b600052602260045260246000fd5b50919050565b634e487b7160e01b600052604160045260246000fdfea2646970667358221220d37e5736bf7a7b025fabd4f5c30d65551d70458e6112cdb6d836d43dcc0e383164736f6c63430008000033",
  "immutableReferences": {},
  "source": "// SPDX-License-Identifier: MIT\n\npragma solidity ^0.8.0;\n\ncontract SmartContract {\n  constructor(string memory _name, string memory _symbol) {\n    name = _name;\n    symbol = _symbol;\n  }\n\n  string public name;\n  string public symbol;\n\n  function updateName(string memory _name) public {\n    name = _name;\n  }\n}\n",
  "sourcePath": "/Users/danielbotha/Desktop/base/contracts/SmartContract.sol",
  "compiler": {
    "name": "solc",
    "version": "0.8.0+commit.c7dfd78e.Emscripten.clang"
  },
  "schemaVersion": "3.4.1",
  "updatedAt": "2021-08-12T10:30:05.762Z",
  "networkType": "ethereum",
  "devdoc": {
    "kind": "dev",
    "methods": {},
    "version": 1
  },
  "userdoc": {
    "kind": "user",
    "methods": {},
    "version": 1
  }
}